:02000004620098
:1040000000B50E4B00F02CF80D4B00F029F80D4BCD
:1040100000F026F80C4B00F023F80C4B00F020F8D1
:104020000B4B00F01DF80B4B00F01AF80A4B00F098
:1040300017F80A4B00F014F801BC0047614B00620E
:10404000D14A0062CD4900627D4E00628D4B006214
:10405000DD410062794B00627D4500625D45006292
:104060001847C04670B50404144B240C00F09BF8AC
:10407000C0232404DB05E5181026114A114C124810
:104080001249134B148001801380124B148001805D
:104090002B802A88298840231A400B409A42F8D165
:1040A000731E1B041E0C80235B01ED18002EE4D14F
:1040B000094B00F078F870BC01BC0047614B00620E
:1040C000AAAA0060AAAAFFFF545500605555000037
:1040D0008080FFFF30300000794B006210B50C1C6F
:1040E000094B0A490A4A0B800A4B1A800A4B0B807B
:1040F00020802288218840231A400B409A42F8D120
:1041000010BC01BC00470000AAAAFFFFAAAA0060D9
:104110005555000054550060A0A0FFFF10B5041CC9
:104120000906080EE30705D5013C22780302101C9E
:10413000184304E02288FF231B021A401043211C6D
:10414000FFF7CCFF10BC01BC00470000F0B5120423
:104150000127061C0D1C140C394208D00178281CBC
:10416000FFF7DCFF631E1B04013501361C0C3C42CB
:1041700006D0631E1B041C0C2819A15DFFF7CEFF9F
:10418000002709E0737830781B02291C1843FFF7D9
:10419000A5FF0236023502373B041B0CA342F1D3C4
:1041A000F0BC01BC00471847002103E0084B013177
:1041B00099420AD0074B1A6816231A42F6D1064BC9
:1041C0001B68002B01D1002000E001207047000097
:1041D00072110100000010401400104030B5134B64
:1041E00000F0BAF91248134B0022134D012102606E
:1041F00049421A60114C0833296019600833226063
:104200001A60802302685B041A430D4B026023602E
:104210002960802302681B061A430260FFF7C4FF6F
:10422000084B00F099F930BC01BC0047614B0062BB
:104230000000104004001040080010401000104022
:10424000B0DF1000794B006210B5C022120623497E
:1042500083188B4201D801203CE0214C03198B428A
:1042600001D8022036E01F4A83188B4201D804206F
:1042700030E01D4C03198B4201D808202AE01B4B6B
:10428000C2181B4B9A4201D8102023E0194C1A4A3D
:104290000319934201D820201CE0184C03199342C3
:1042A00001D8402016E0164BC218164B9A4201D88E
:1042B00080200FE0144C03198B4202D8802040026A
:1042C00008E0124BC218124B9A4202D8802080029A
:1042D00000E0002010BC02BC08470000FF1F0000E7
:1042E00000E0FFBF00C0FFBF00A0FFBF0080FFBF16
:1042F000FF7F00000000FFBFFFFF00000000FEBFC7
:104300000000FDBFFEFF00000000F4BF00E0F3BFAF
:10431000FE1F000030B5154B051C994223D1C02368
:104320001B06C218124B9A421DD8124B00F014F90A
:10433000114B00221A60114C802322681B051A437E
:104340002260281CFFF780FF0D4B18608023226835
:104350001B061A432260094B1A6816231A42FAD127
:10436000084B00F0F9F830BC01BC0047AFEC00008E
:10437000FFFF0300614B006214001040000010407A
:1043800004001040794B006230B5274B00060D1C2D
:10439000040E9A4245D1C0231B06CA18234B9A42E9
:1043A0003FD8234B00F0D8F803222B1C9343186806
:1043B0002B1C1340012B0AD0012B04D3022B0BD052
:1043C000032B14D10DE0FF23984320430FE0194B3A
:1043D000021C1A40230208E0174B021C1A40230457
:1043E00003E0164B021C1A402306101C1843144B02
:1043F00000221A60134980230A689B051A43124B56
:104400000A602A1C1A40114B1A60083B186080236E
:104410000A681B061A430A60FFF7C6FE0C4B00F041
:104420009BF830BC01BC0047AFEC0000FFFF03006D
:10443000614B0062FF00FFFFFFFF00FFFFFFFF0077
:104440001400104000001040FCFF1F00100010403E
:10445000794B0062F0B51204140C0D1C82B0061CDE
:10446000191C002C61D0334B99425ED1324B9D42D6
:104470005BD9324B2A199A4257D8271C0DE06A1C87
:1044800030780192291C2B4AFFF77EFF7B1E1B040C
:104490001F0C0136002F48D0019D03231D42EED191
:1044A000274B00F059F8032F26D9737831781B0277
:1044B0001943B3781B041943F3781B061943214BA6
:1044C00000221A602048802302689B051A431F4B74
:1044D00002602A1C1A401E4B1A60083B1960802398
:1044E00002681B061A430260FFF75EFE3B1F1B04B7
:1044F000043604351F0CD6E7164B00F02DF80023C8
:1045000000930CE03078291C0A4AFFF73DFF009B1E
:10451000013B1B041B0C6C1C00930136251C7B42C9
:104520001B04009A1B0C9A42ECD102B0F0BC01BCF7
:1045300000470000AFEC0000FFFFFF3FFFFF03401C
:10454000614B00621400104000001040FCFF1F008F
:1045500010001040794B00621847C046A022120696
:10456000136804490B43136003490B680222134389
:104570000B60704708080000200000A0F0B5C74B92
:1045800000221A60C64B01218DB01A6049423020CA
:10459000C44B00F0C9F9FA204000C34B00F0C4F945
:1045A000C24B00F0C1F900210791089105E01222E9
:1045B000012301270792089365E000270697BC4B6B
:1045C00000F0B2F9002826D0FA2292000026131C2F
:1045D0007F211420B74C009600F0A7F94B20B64D70
:1045E00000F0A4F9FA218900B44A0520B44B0096E2
:1045F00000F09BF9B34B00F097F9322000F096F9E8
:10460000A02212061368B0490B431360AF490B6830
:10461000022213430B60AE4B002000F085F900042A
:10462000000C03041A14002AC9DB0899642900DD70
:104630002FE1012F0FD0022F31D0002F00D028E121
:10464000102A04D1069A01235A400692B7E7069B26
:10465000002BB4D01AE007990306180E41400791C9
:10466000102A0AD1069B7B400693002BA7D10899FC
:10467000984BCA5401310891A1E7069B002B08D042
:10468000032A03D102270021069198E7022A94D138
:104690008DE7089A8F4BD054013208928FE71B02A6
:1046A00007991B0E994200D0EDE008AA894D1278B7
:1046B0007E4B2A7000F038F9012149423020794BB5
:1046C00000F032F9FA20784B400000F02DF96978BB
:1046D0002B7844297BD1032B00D8D4E0AB784C2B2A
:1046E00000D0D0E0EB78542B00D0CCE02C79032C18
:1046F00016D0032C03D8012C00D0C4E005E0042C14
:1047000036D0072C00D0BEE058E0734B687900F03B
:104710000BF96B79002B00D0B3E0614B1C60B0E06B
:1047200006206E4B00F000F96549644BFA229200B6
:1047300000910391002101920293049105207F21B1
:104740005C4C00F0F2F832205B4C00F0EEF85D4B70
:1047500000F0EAF8322000F0E8F8A0221206136810
:1047600059490B431360594A13683B43136088E06F
:104770005B4B5C681B6809930A9400230C9368796F
:10478000592803D8FA21C900431801E0554A831873
:104790000993504A937909A84371D3790371137A25
:1047A0000CAC2370537A6370937AA3704E4B00F075
:1047B000BBF8201C4D4B00F0B7F862E0384B1B688B
:1047C000012B5ED1C0214A48C905042213E00BAA7F
:1047D000D170053B1B041E0CAB789370EB785370C3
:1047E0002B7913700B99A0231B06CA18414B9A42D0
:1047F00005D8681D321C404B00F096F841E03F4B55
:10480000994231D93E4B8A199A422DD8081C3D490C
:10481000059100F087F8214C2368071C034207D15B
:10482000394B0B98394900F07FF823683B432360EC
:104830000B9880190138059A00F075F82368071C59
:10484000034209D10B9880192F4B01382F4900F0F2
:104850006BF823683B4323600B99681D321C2B4B7C
:104860002B4C00F062F80CE02A4B99420BD92A4BF2
:104870008A199A4207D8081C321C2849284B00F094
:1048800053F8062000E01520144B00F04DF80027E7
:1048900095E60DB0F0BC01BC00470000A8840062A2
:1048A000A4840062054F0062254A0062C54C006284
:1048B000314A0062F94F006231490062C4090000C8
:1048C000AC0D0000DD4B006208080000200000A0D5
:1048D000B14C0062AC840062654000625D4C0062D5
:1048E0004C8100626C07000071540062D953006271
:1048F00044810062FFFF3F004D410062FFFFFF3F28
:10490000FFFF03404942006215430062AFEC000024
:1049100055440062FFFFFF6100001062B184006235
:10492000F556006208471047184720472847C046F9
:10493000034B18601A1C1368002BFCD17047000051
:1049400068850062044A054B1380054B1380054BB4
:10495000012252421A80704718E000E05AA5FFFF7A
:10496000A55A000008E000E010B50C4A1368834225
:1049700010D00B4B04329A42F8D1503A0021141C4B
:104980001368002B02D18B00185103E0013104326F
:104990001429F5D110BC01BC00470000108500624D
:1049A0006085006210B5084900220C1C0B68834228
:1049B00003D192000023135103E001320431142A81
:1049C000F4D110BC01BC00471085006200B50E4A4E
:1049D000111C5031002308C28A42FBD10B4A0C4BF8
:1049E0001A800C4A043B1A800B4A0C3B1A800422A2
:1049F000524208331A800020084A0121084B00F077
:104A000064F801BC004700001085006217400000F8
:104A1000189000E04080FFFF88130000454A0062C4
:104A20002D4B0062014B18607047000064850062E6
:104A3000034B1B680020002B00D1012070470000B1
:104A40006485006210B5164A164B1380164B13800E
:104A5000164B012252421A80154A1368002B02D0CD
:104A60001368013B1360134A1368002B02D01368CC
:104A7000013B1360104C2268002A03D00F4B1A60D0
:104A800000F022F80E4B04349C42F4D10D4B00226E
:104A90001A80042252420C3B1A8010BC01BC004711
:104AA00018E000E05AA5FFFFA55A000008E000E06A
:104AB00068850062648500621085006204A9006256
:104AC000608500621C9000E01047184770470000A6
:104AD00010B5104B00211960203319600E4A0123D4
:104AE0005B4213600D4B0C221A60143B19601033AB
:104AF00019600B4A0B480C4C8B04136001311319DD
:104B0000186004322029F6D1024B01221A6010BC31
:104B100001BC004700F8FFFF40F8FFFF1CF8FFFF53
:104B200060F8FFFFCD4A0062DC07000030B50004EA
:104B3000000C8400E263084D01232A6883401A4375
:104B4000064BE4180F231940800408432A602060B4
:104B500030BC01BC0047000020F8FFFF60F8FFFFF9
:104B60000349044B0A681A6000230B607047000079
:104B700020F8FFFF6C850062024B1A68024B1A6036
:104B8000704700006C85006220F8FFFF00B50D4BF8
:104B90001A880F230C490D48134201D0002300E06E
:104BA00009230B6000F0A4F8094B00F0A2F8094BB0
:104BB00000F09FF830200021074B00F09AF801BC6C
:104BC00000470000408800C054820062F54C00623B
:104BD000488200621D5A0062054F006210B50A4CFF
:104BE0002368092B09D1C020084B00F082F8084B3C
:104BF00000F07FF80023236002E0064B00F079F814
:104C000010BC01BC0047000054820062595B006286
:104C1000D95A0062554E006200B5090681B0090EEE
:104C200009280ED1684603300170094B012100F0BC
:104C300060F8002809DB074B00F05BF8430704D459
:104C4000F9E7081C044B00F054F801B001BC004720
:104C5000015B0062895B0062614D006200B5044B3C
:104C60000106090E1868FFF7D7FF01BC00470000D6
:104C70005482006210B581B009280DD16C4603340E
:104C8000201C0121084B00F034F8002802DC012030
:104C9000404205E0207803E0081C044B00F029F8AE
:104CA00001B010BC02BC08472D5B0062814D006260
:104CB00000B5034B011C1868FFF7DCFF02BC084776
:104CC0005482006200B5074B1B68092B04D14020B9
:104CD000054B00F00EF802E0044B00F00AF801BCAE
:104CE0000047000054820062595B00623D4D006243
:104CF0000047184700B5094A0023538053881B0416
:104D00001B0C13800920064A0D21064B00F0B4F855
:104D10000548064B00F0B0F801BC004774850062FE
:104D2000FD4D00622D4B0062DD4D0062694900625D
:104D300000B5FFF7DFFF01BC00470000064A002175
:104D4000518053881B041B0C1380044B19800433BF
:104D500019801C3B1B88704774850062204000C08E
:104D60000006054B000E1880044B1A8880239B0018
:104D70001342F9D170470000044000C0144000C045
:104D80000004134B000C188012490A884B88120447
:104D90001B04934207D10E4B1B881B04002BF3D13D
:104DA0000120404212E04A881204120C53180132CA
:104DB00012041B79120C4A801B06180E4B88064AF7
:104DC0001B041B0C934201D100234B807047000051
:104DD0007085006274850062EE020000054A138847
:104DE0001B04002B05D0138803491B045B181B0C04
:104DF00013807047708500620000FFFF10B5114BF3
:104E00001B68DA071BD5104B1B881B041A0C802368
:104E10009B00141C1C4012D10C4803881B041B0C63
:104E20001918013312061B04120E1B0C0A710380A1
:104E30000388074A1B041B0C934200D1048010BC5A
:104E400001BC0047144000C0084000C074850062E7
:104E5000EE020000064A0021518053881B041B0CFF
:104E60001380044B1980043319801C3B1B88704746
:104E700074850062204000C01847C04600B516483F
:104E8000164B00F0F1F9164B002018801B88154ACC
:104E90001B041B0C13801388134A1B041B0C138068
:104EA0001388124A1B041B0C1380114A114B1188E2
:104EB0000B401380104B11880B4013800F4B0422C2
:104EC00052421A80052208331A80043B50221A806D
:104ED0000B4B188001BC00476950006269490062B1
:104EE0009E880062A0880062A2880062A488006296
:104EF0000C5000E0FF7F0000FFBF000010C000E08A
:104F00009C88006210B5041C081C002924D1E3070A
:104F100006D53149314B0A8813400B80304B18803D
:104F2000A30706D52C492F4B0A8813400B802E4B24
:104F30001880E30606D52849284B0A8813400B80C1
:104F40002A4B1880A30643D52349264B0A881340D1
:104F50000B80274B18803BE0E3070CD51E490B88DC
:104F6000244A1B041B0C13431B041B0C0B801C4A00
:104F700003041B0C1380A3070DD517490B8880224F
:104F80001B04D2011B0C13431B041B0C0B80164A81
:104F900003041B0C1380E3060BD50F490B88154A3D
:104FA0001B041B0C13431B041B0C104A0B80142303
:104FB0001380A3060CD508490B8880221B04D2015C
:104FC0001B0C13431B041B0C094A0B801423138076
:104FD00010BC01BC004700000C5000E0FF7F000047
:104FE000A4880062FFBF0000A2880062A08800625F
:104FF0009E8800620080FFFF0EB470B581B0059DF1
:10500000061C002D20D006AB0024009304E0114ABA
:10501000A300985001340B1C1868191D002801D0FA
:105020000A2CF4D10B4AA3000091002199500A4A9E
:1050300033061B0E1370094A2B061B0E1370084B08
:10504000084A19600123138001B070BC08BC03B08A
:1050500018470000688800629488006295880062A2
:10506000988800629C88006200B569490B88694A8B
:105070001B041B0C934211D00B88674A1B049B181E
:105080001B0C0B800B881B04180C002806D16349ED
:10509000634B0A8813400B80624B188062490B886F
:1050A0005C4A1B041B0C934211D00B885A4A1B0408
:1050B0009B181B0C0B800B881B04180C002806D1B6
:1050C00056495A4B0A8813400B80594B188058494F
:1050D0000B881B04002B1BD00B884F4A1B049B180A
:1050E0001B0C0B800B881B04002B11D14B4880221A
:1050F0000388D2011A4204D003884C4A1A40028025
:1051000004E003881B041B0C1343038014230B804F
:1051100044490B881B04002B1DD00B883E4A1B04FE
:105120009B181B0C0B800B881B04002B13D13B48D6
:1051300003881B04002B04DA0388394A1A400280D2
:1051400007E003883B4A1B041B0C13431B041B0C86
:10515000038014230B80384A13881B04002B55D07E
:1051600013882D491B045B181B0C138013881B0428
:10517000002B4BD13148036831499A005158013313
:10518000036000290AD12F4B042252421A800522C3
:1051900008331A805022043B1A8037E0012909D1D4
:1051A000284B042252421A80052208331A805022CA
:1051B000043B24E0244B09041B78090C234B2448AE
:1051C00000F052F81F4B0422011C52421A8005398C
:1051D000052208331A8088001E4A0B0440181B0C55
:1051E00013808300C0187D301B4B642100F03CF815
:1051F00005381A4B0004000C194A18800C331A8029
:10520000184B1B780C4A1B061B0E138001BC004771
:10521000A4880062FFFF00000000FFFF0C5000E0C8
:10522000FF7F0000A0880062A2880062FFBF00002C
:105230009E8800620080FFFF9C8800629888006260
:105240006888006210C000E095880062E95700623B
:10525000804F12000CC000E05D57006208C000E003
:105260005082FFFF948800621847C0460B490A88A5
:1052700020231342FAD00B881B0410221B0C13436B
:105280001B041B0C0B80064B00221A80054A0433BA
:105290001A80054B0A8813400B80704704D000E049
:1052A00008D000E00080FFFFEFFF0000FA21890036
:1052B0000A4B1A882023134209D0094B1A88043359
:1052C0001B8812041B041B0C101C184304E001393A
:1052D0000029EDD1012040427047000004D000E0D9
:1052E00018D000E030B5041C0D1CFFF7DFFF431C95
:1052F00002D10120404205E0211C2A1C034B00F092
:10530000E8F8002030BC02BC084700009555006258
:1053100030B5041C0D1CFFF7C9FF013002D101207C
:1053200040422CE0201C291C164B00F0D2F81649F4
:105330000A8820231342FAD00B881B041B0C10226E
:1053400013431B041B0C0B800F4B1A8820231342A2
:10535000FAD003040D4A1B0C13800B4B1A88202330
:105360001342FAD00A4B020C1A8007490A882023FC
:105370001342FAD00A88074B13400B80002030BC40
:1053800002BC0847D554006204D000E01CD000E005
:1053900018D000E0EFFF000000B581B06946FFF7CC
:1053A000A1FF01B001BC004700B582B0011C6846F6
:1053B000FFF798FF02B001BC004700000378172BED
:1053C00007D843783B2B04D883783B2B01D80020A7
:1053D00001E001204042704730B582B0051CFFF764
:1053E000EDFF013002D10120404206E06846FFF7A0
:1053F000D3FF6846291CFFF78BFF02B030BC02BC0C
:105400000847000010B50468174AA318632B23D877
:105410000179002920D043791806030E0C2B1BD8E4
:1054200001220316101C9840104B184206D1A523E8
:105430001B01184205D1430706D40DE01F290ED9E0
:105440000AE01E290BD907E003231C4202D11D29C3
:1054500005D901E01C2902D90120404200E00020CA
:1054600010BC02BC0847000030F8FFFFAA1500007E
:1054700030B581B0051CFFF7C5FF013002D1012016
:10548000404206E06846FFF78FFF281C6946FFF799
:105490003FFF01B030BC02BC0847000030B5041C1F
:1054A0000D1CFFF7AFFF013009D0281CFFF786FF66
:1054B000013004D0201C291CFFF72AFF01E0012045
:1054C000404230BC02BC084700B5FFF70BFF01BCEF
:1054D00000471847F0B50768FC00E419E400E41938
:1054E000A30083B07E1EE418FB1C9B08244D019092
:1054F0000091301C6421E41800F0F8F8C821241A47
:105500004900301C00F0F2F8019A1E495279241823
:1055100065180292022A12D903231F420FD11A4E94
:10552000381C642100F0E3F8002806D1C821381C9B
:10553000490000F0DCF8002801D1144BE5181449AB
:10554000012202E008C90132ED18029B9A42F9DB00
:1055500001990B79EB180099013B1A01DB00D21875
:105560000B78D21813019B1A4A789B009B181801DC
:10557000C01A8B788000C01803B0F0BC02BC08478A
:105580005D5700625805F5FF8D5800625905F5FF1B
:1055900058810062F0B588B04B4F049105903C21D2
:1055A000161C00F0A5F8B070484D05983C2100F09D
:1055B0009DF83C21041C00F09BF83C217070201CDD
:1055C00000F094F8182100F093F8307040490598E5
:1055D00000F08CF83F4A86183F49301C00F088F8EC
:1055E0003E49041C00F082F83C490390201C00F066
:1055F0007FF83B49029000F07BF83A49041C00F028
:1056000075F838490190201C00F072F801300790BD
:105610003149301C00F06AF884002418039AA30072
:10562000E41864235343240102982D49E41800F040
:105630005DF8019A80002418A318049A1360039A55
:10564000042A02D0019A042A04D1049A0C2353712B
:105650001F2333E0049A0133136000235371079B27
:10566000214A0693009220E0009AAB009B185B68E9
:10567000069AD61A012D12D1049B1C6803231C42E2
:105680000DD1201C642100F033F8002806D1C82178
:10569000201C490000F02CF8002800D1013E002E0B
:1056A00007DD049A6B1C53710696049B5D790A2DE5
:1056B000DAD9049A6B1C53716B461B7E08B01371C8
:1056C000F0BC01BC004700008D5800625D570062CD
:1056D000805101003AF90A00B13A0200AC8E000094
:1056E000B50500006D010000548100622847304775
:1056F0003847C04630B5051C8446141C101C0F2AC0
:1057000004D90A1C2A4303231A420ED0631E08D36D
:1057100062469B18581C0B7813700132013182428B
:10572000F9D1281C30BC02BC08472A1C0B68136046
:105730004B6853608B689360CB681038D36010312E
:1057400010320F28F2D8041C032805D908C90438E0
:1057500008C20328FAD8041C9446D7E7002934D09D
:105760000123002210B488422CD301242407A14233
:1057700004D2814202D209011B01F8E7E400A142F0
:1057800004D2814202D249005B00F8E7884201D38B
:10579000401A1A434C08A04202D3001B5C08224363
:1057A0008C08A04202D3001B9C082243CC08A042D4
:1057B00002D3001BDC082243002803D01B0901D0C0
:1057C0000909E3E7101C10BC704700B500F0C2F8EF
:1057D000002002BC0847000003B5FFF7BFFF0EBC66
:1057E0004243891A1847C046002941D010B4041C0E
:1057F0004C40A44601230022002900D5494200283C
:1058000000D5404288422CD301242407A14204D26F
:10581000814202D209011B01F8E7E400A14204D24F
:10582000814202D249005B00F8E7884201D3401A66
:105830001A434C08A04202D3001B5C0822438C0888
:10584000A04202D3001B9C082243CC08A04202D3F2
:10585000001BDC082243002803D01B0901D00909E2
:10586000E3E7101C6446002C00D5404210BC704792
:1058700000B500F06FF8002002BC084703B5FFF741
:10588000B3FF0EBC4243891A1847C04600295AD0BC
:105890000123884200D2704710B401242407A1429A
:1058A00004D2814202D209011B01F8E7E400A142BF
:1058B00004D2814202D249005B00F8E7002288420C
:1058C00000D3401A4C08A04205D3001B9C4601247B
:1058D000E3411A4363468C08A04205D3001B9C4653
:1058E0000224E3411A436346CC08A04205D3001BBF
:1058F0009C460324E3411A4363469C46002803D098
:105900001B0901D00909D9E70E242407224018D029
:1059100063460724234214D063460324E3411A421A
:1059200001D0CC08001963460224E3411A4201D099
:105930008C08001963460124E3411A4201D04C0847
:10594000001910BC704700B500F004F8002002BC3C
:105950000847C0467047C046014B18887047000092
:10596000A8880062F0B51A4E00233370194B00224C
:105970001A60194D194B1A602B8800040127000C7E
:105980003B4202D0012464421EE0154A154B1A60C6
:1059900002231374144B154C1880154B154A2360C1
:1059A000154B1648136000F0C5FA236814491B68AC
:1059B000002000F05DF9041C002805D101232F8090
:1059C00033701048FEF7D0FF201CF0BC02BC084723
:1059D000B0880062AC880062BA88006208A90062E0
:1059E00014A900623CA90062A888006210A90062A4
:1059F000BC83006238A900629883006202A00000A4
:105A000091810062015C006200B5034B1B68DB6C96
:105A100000F02EF901BC004710A9006230B51B4B05
:105A200000251D601A4C1B4B011C1D60201C2422EC
:105A3000FFF760FE184B194A1C60194B1360194A96
:105A4000194B136000F016F9184A194B936114238F
:105A50009383184A88231380174A11231380174B06
:105A6000174A1D80174B1380174B01221A80174BC2
:105A700017481A70FEF778FF164A1A200E21FFF712
:105A800055F8002030BC02BC08470000AC8800621A
:105A900014A9006208A900623CA9006210A9006272
:105AA000BC83006238A9006298830062D0820062E1
:105AB00091810062E0A80062EEA80062ECA800629A
:105AC0000EA90062009CFFFFBA880062B0880062E5
:105AD000015C0062F55B006210B5074C2388DA07B1
:105AE00006D5064B1B685B6800F0C2F800232380D4
:105AF00010BC01BC00470000BA88006210A9006217
:105B000000B5084B1B88DA0702D40120404206E0AA
:105B1000054B1B680904090CDB6800F0A9F802BCFE
:105B200008470000BA88006210A9006200B5084B5F
:105B30001B88DA0702D40120404206E0054B1B68AF
:105B40000904090C1B6900F093F802BC0847000027
:105B5000BA88006210A9006210B50006040EC023C6
:105B60001C4205D0074B1B68201C5B6900F080F8C5
:105B7000044B1B68201C1B6A00F07AF810BC01BCA7
:105B80000047000010A9006230B50B4B1B88DA07F4
:105B900002D4012040420CE0084D2B689B6900F0C4
:105BA00067F82B68DB69041C00F062F82406240CFB
:105BB000204330BC02BC0847BA88006210A90062CA
:105BC0000848094A011F0F231340092B01D830331D
:105BD00000E037330370013812098842F3D10130F5
:105BE00070470000B48800625A0600000048704701
:105BF0008881006200B500F0B7F901BC00470000E1
:105C0000034A1368002B01D0013B1360704700006A
:105C1000AC880062014B18607047000008A9006260
:105C20000E4B1A88012A08D00D4B9A4205D00D4B15
:105C30001A880D4B9A4200D009220C48011F0F23ED
:105C40001340092B01D8303300E03733037001389B
:105C500012098842F3D1013070470000A888006221
:105C600057200000FE1F0C4002A00000B888006210
:105C70001847C046074B084A1360084A1A60084A8A
:105C80000021002059609960D9601A6159619961B9
:105C9000D9617047C0A80062BCA80062BC980062CD
:105CA000BC88006270470000F0B5174B1B68DD68C8
:105CB00081B01E6800905B68002D1FDDA94200DAEC
:105CC0000D1C80225F195201974201DC2C1C00E060
:105CD000D41AF1180098221CFFF70CFDAC4205DA2B
:105CE000009B2A1B1819311CFFF704FD064B1A688C
:105CF000064B3B405360D3685B1BD360281C01B04C
:105D0000F0BC02BC08470000BCA80062FF0F000006
:105D100030B5084D2B680C1C021C111C1869221C84
:105D2000FFF7E8FC2A680023201CD461536130BCD3
:105D300002BC0847BCA80062034B1B688020DB68DC
:105D40004001C01A70470000BCA80062014B1B68EC
:105D5000D8687047BCA80062014B1B68D8697047BF
:105D6000BCA80062034B1A680023D36053609360A1
:105D700070470000BCA80062034B1A680023103271
:105D8000D360536093607047BCA80062034B1B68EC
:105D90008020DB684001C01A70470000BCA8006288
:105DA000014B1B68D8697047BCA80062F0B5171C8E
:105DB000051C0C1C00260BE023782B70074B1B687E
:105DC000002B02D0207800F0B3F801360135013401
:105DD000BE42F1DBF0BC01BC0047000008A9006234
:105DE00070B5114B0C1C1968CB69061C002B01DC2B
:105DF000002016E04A690B69C8699A18A04200DDC4
:105E0000201C431C5D10002403E0138808C60232E6
:105E10000134AC42F9D14B691B184B61CB691B1A99
:105E2000CB6170BC02BC0847BCA8006270B5144BC3
:105E30000E1C1968CB69041C002B19DD4A690B691B
:105E4000C8699D18B04200DD301C002308C4431C03
:105E50005E10002203E02B8808C402350132B242F2
:105E6000F9D14B691B184B61CB691B1ACB6102E05E
:105E7000002303600020023070BC02BC0847000011
:105E8000BCA80062F0B5274B83B00190186880234E
:105E9000C2685B010F1C9B1ABB4201DC00273BE080
:105EA000816806687D101FE0019A08CA1C04200C56
:105EB0001D4B0192885500931B6801310291002B04
:105EC00003D00006000E00F033F8029B174A200EA4
:105ED00013409855009A5C1C1368002B01D000F009
:105EE00027F81249013D2140002DDDDCFB070DD5CF
:105EF000019A13688B550C4B1B684C1C002B02D06D
:105F0000107800F015F8094B211C1940054B1A6850
:105F10009160D368DB19D360381C03B0F0BC02BCBD
:105F200008470000BCA8006208A90062FF0F00003B
:105F30001847C04630B5084D084C094809490022A9
:105F4000135953515358135004323C2AF8D10020AE
:105F500030BC02BC08470000948200623C830062AF
:105F6000588200620083006270B51F4E33681F4C78
:105F70001B041B0C23801E4D22882B8813405A05BE
:105F800006D51C4B33601C4B1B689B6800F03CF82B
:105F900022882B881340DA0404D5184B0020336084
:105FA00000F0D0F822882B8813401A050DD5144B29
:105FB0001B781B06002B02D000F098F802E00220AC
:105FC00000F0C0F80F4A084B1A60084B1988084BBC
:105FD0001A8880230A401B021A4201D001F00AFBF2
:105FE00070BC01BC00470000448800C00CA90062DE
:105FF0000EA90062FFFB000010A90062FFEF000085
:10600000FC820062FFF700001847C04630B5174B0E
:106010001B689B7C041C151C081C012B01D1002350
:1060200008C46B10C2070BD5191C06E04378027830
:106030001B021A4304C4023001390029F6DC0CE0CB
:10604000011C1A1C03E00B8808C40231013A002A23
:10605000F9DC01232A1C9A438018EB0702D5037848
:106060002360013030BC02BC084700003CA900623C
:10607000704700007047000070470000014B03604C
:106080007047000014A90062094BE8220949520038
:106090001A8001230B60084B002208480A601A602E
:1060A000074B03809C231B0200200B6070470000FD
:1060B0004C0000A0408800C0448800C00EA90062C7
:1060C000009CFFFF064901230B60064B00221A606B
:1060D00003230B60044B072200201A807047000046
:1060E000408800C0448800C04C0000A00A4A012338
:1060F00013600A490B681B0408221B0C13431B0482
:106100001B0C0B600B681B0404221B0C13431B04A9
:106110001B0C0B607047000040A90062408800C063
:10612000064A0023136006490B681B0404221B0C5B
:1061300093430B609C231B020B60704740A90062D5
:10614000408800C000B50006000E072801D0284B8B
:106150001870274A13781B061B0E052B44D8254AB6
:106160009B009B589F46FFF7DBFF214A3CE0FFF76F
:10617000D7FF1F4A11E01E4B02225A7003221A70E9
:1061800034E01B4A5378FF211B0609065B181B0EDF
:10619000537053781B06002B28D1042325E01649A1
:1061A0000B681B0410221B0C13431B041B0C104A0E
:1061B0000B60052313700A23537017E00C484378D3
:1061C000FF221B0612069B181B0E437043781B060A
:1061D000002B0BD108490B681B041B0C10229343A6
:1061E0000B600623037001E00623137001BC004717
:1061F000E4A80062A4810062408800C010B5FFF7E7
:10620000CFFD00280BDD14483E21FFF70FFE0022D2
:10621000402800D10122114B01041A800CE00F4CE0
:1062200023881B041B0C012B0ED13E210A48FFF7CB
:10623000FDFD002323800104090C012001F014FD61
:10624000012001F0AFFB04E00549064B0A8813402A
:106250000B8010BC01BC0047008200C0EAA80062AD
:10626000E0A80062FFFE000010B5012001F064FD0F
:10627000094C0123011C23800848FFF703FEFFF7A8
:1062800085FD7F2804DD00232380012001F09CFB95
:1062900010BC01BC00470000E8A80062008200C0FA
:1062A00000B5FFF77DFD00280CDD3E210948FFF712
:1062B00097FD0104090C022001F0D6FC022001F038
:1062C00071FB04E00449054B0A8813400B8001BCB4
:1062D00000470000808200C0E0A80062FFFE0000CE
:1062E00000B50B490B881B04002B0FDA0A880F231B
:1062F00013400B800B88074A1B041B0C0320136000
:10630000022101F0B1FC032001F04CFB01BC00476D
:10631000ECA80062008300C070B500060E1C050EDC
:10632000FFF7A8FC00284CD12749284C002D08D1A4
:106330008022062352425B42CA710B72E2712372C1
:1063400005E040235B42CB710872E3712072337821
:106350001F4A204C022B02D80023137405E00323AC
:1063600013741D4A14239661938322680023937447
:10637000FFF78AFE144B2268DB791A2053740E2132
:10638000164AFEF7D3FB16490B68012213430B6034
:10639000144A13881B0480211B0C0B431B041B0C89
:1063A00013800C3213881B041B0C0B431B041B0CA7
:1063B00013800D4A80235B0013800C4A0023138056
:1063C000002070BC02BC08475F8400621C8400622D
:1063D0008A8400623CA90062D0820062F55B0062A0
:1063E00000F800E0005000E0E0A80062EEA80062C3
:1063F00000B50B490B4B0A8813400B800A490B4A26
:106400000B6813400B60FFF75DFEFFF74BFC084B7A
:1064100000221A80074B00201A8002BC08470000A7
:106420000C5000E07FFF000020F800E0FFFFFFFBC2
:10643000E0A80062EEA8006200B5194B1A680023BC
:106440009374D374002001F01DFA8021890000208C
:1064500001F03EFA0020202101F058FA002020210E
:1064600001F0CEFB6021002001F0B6FB002001F01E
:10647000DBFA0C4B54331978002001F01FFC00208C
:1064800001F0A2FA002000F0D9FF074A80235B0048
:106490001380064A20230020138002BC0847000016
:1064A0003CA90062BC830062E0A80062EEA8006222
:1064B00070B5041C3548028809048023090C134276
:1064C00002D1022040425EE0002901D100205AE0C2
:1064D0008022038852001A4201D0002452E003882F
:1064E0001B041B0C134303803E2901D93E2500E009
:1064F0000D1C274B1B689B7C4E1B012B24D1211CA0
:10650000244C2A1C2448FFF781FD2368234A1340AA
:106510002360311CFFF7FCFB22688023DB040004AE
:106520001A43000CAB1C40191B040004190C226018
:10653000040C0022402900D10122194B01201A80AD
:1065400001F092FB01201BE0211C124C2A1C154873
:10655000FFF75CFD2368114A13402360311CFFF7ED
:10656000D7FB00042268000C8023DB0440191A4387
:1065700000042260291C040C022001F075FB02209B
:1065800001F010FA201C70BC02BC0847E0A80062B1
:106590003CA9006220F800E0008200C0FFFFFFFB82
:1065A000EAA80062808200C070B51D4B1A880904F9
:1065B0008023061C0D0C134202D1022040422CE025
:1065C000002D29D0FFF7C2FB002825D0154C164A14
:1065D000236813402360291C301CFFF765FB2268E9
:1065E0008023DB041A43114B22601B689B7C000450
:1065F000050C022B0ED1FFF79FFBFF280ADD0C4A8A
:1066000013881B041B0C012B04D1002313800120D1
:1066100001F0DAF9281C00E0002070BC02BC084739
:10662000E0A8006220F800E0FFFFFFFB3CA9006249
:10663000E8A8006230B50006050E6B060BD50F4CBE
:106640000F4A236813402360FFF78CFB22688023E6
:10665000DB041A4322602B06002B0BDA074C084A96
:10666000236813402360FFF787FB22688023DB0445
:106670001A43226030BC01BC0047000020F800E053
:10668000FFFFFFFB054B1A888023134201D1002036
:1066900003E0034B1B881B04180C7047E0A8006242
:1066A000EEA8006210B5134B1A880823134201D0DC
:1066B000082400E000240F490A888023134203D0F5
:1066C000012323431B041C0C80230A885B00134214
:1066D00003D1042323431B041C0CFFF737FB0028C2
:1066E00003D0022323431B041C0C201C10BC02BC3F
:1066F00008470000E0A8006230B543490A88000658
:106700000823040E414D13420DD0A3070BD40B8870
:106710001B0480221B0C13431B041B0C0B803C4BE3
:106720000A8813400B80384B1A888023134268D0A4
:10673000384B1B68987C012802D0022861D127E0E1
:106740003549364B0A8813400B80A30707D50B88C1
:106750001B041B0C202213431B041B0C0B80044244
:1067600007D00B881B041B0C102213431B041B0CAB
:106770000B802B4A80235B0013600B881B041B0DCE
:10678000043201201360042101F06EFA012036E08A
:106790002149224B0A8813400B80630707D50B88D9
:1067A0001B041B0C202213431B041B0C0B80230710
:1067B00007D50B881B041B0C102213431B041B0C56
:1067C0000B800B8817491B041B0D0B800B88164A86
:1067D0001B041B0C13431B041B0C0B80134B2A883C
:1067E0001A606A8804331A60AA8804331A60EA8837
:1067F000043303201A60082101F036FA032001F067
:10680000D1F830BC01BC0047E0A80062BC81006246
:10681000FFFE00003CA90062EEA80062CFFF00006E
:10682000008200C0ECA800620080FFFF008300C06F
:1068300000B54E4B1B68022B3DD0222B00D08EE0C2
:106840004B480288012313421AD04A490B881B0483
:1068500080221B0C13431B041B0C0B80464B0A8825
:1068600013400B8003881B0430221B0C13431B04B2
:106870001B0C038000880005000EFFF73DFF16E0AB
:1068800002883E4B1340038000880005000EFFF78E
:1068900033FF38493A4B0A8813400B800B8880221B
:1068A0001B041B0C520013431B041B0C0B80C02049
:1068B000FFF7C0FE53E0334B1A7A181C01232C4912
:1068C000134207D00B881B041B0C012213431B042B
:1068D0001B0C02E00A882C4B13400B80027A022327
:1068E0002349134207D00B881B041B0C02221343BD
:1068F0001B041B0C02E00A88244B13400B801C492C
:106900000A880223134211D00A88202313421AD086
:1069100018491B4B0A8813400B800B8880221B04EC
:106920001B0C520013431B041B0C0BE011490B887A
:106930001B0480221B0C13431B041B0C0B800E4BEF
:106940000A8813400B800A4B18880005000EFFF7D9
:10695000D3FEC020FFF76EFE0A4A00231372034ADB
:1069600000230020136002BC08470000F0A800626A
:10697000EEA80062E0A80062FFFE0000CFFF00006A
:106980007FFF000044A90062FEFF0000FDFF000041
:10699000042040427047000000B50006000E0228A7
:1069A00031D0022802D801283ED11DE020280ED087
:1069B000212839D1234B1B681B787F221340212BC0
:1069C00001D1214900E00021204A212329E01D4B6B
:1069D0001B681B787F221340212B01D11C4900E04A
:1069E00000211A4A20231CE0164B1B681B787F22CB
:1069F0001340412B01D0002102E0164B16491860CC
:106A0000124A01230DE00F4B1B681B787F221340B5
:106A1000412B01D0002102E00E4B0F4918600B4AB8
:106A200002231360002902D10420404208E0054BF4
:106A30001A68002311625383002000F033F900200C
:106A400002BC08473CA900624D6B0062F0A80062DE
:106A5000696B006244A90062856B00620C4B196887
:106A60000B787F2200061340000E212B0CD1022848
:106A700008D0222808D1074B18604B790F22134009
:106A8000054A1380002001E00420404270470000C6
:106A90003CA90062F0A80062EEA8006200B5074BB6
:106AA0001A88074B0004000C9A4201D1054900E006
:106AB000054900F083FA02BC08470000FE1F0C40A5
:106AC00002A00000908300628883006200B5074B3B
:106AD0001A88074B0004000C9A4201D1054900E0D6
:106AE000054900F06BFA02BC08470000FE1F0C408D
:106AF00002A00000808300627883006200B5074B2B
:106B00001A88074B0004000C9A4201D1054900E0A5
:106B1000054900F053FA02BC08470000FE1F0C4074
:106B200002A00000D8820062D0820062002070477C
:106B30000020704700060906000E002903D1012835
:106B400001D8002001E004204042704700040028E2
:106B500004D1034B1A680823138300E001487047EF
:106B60003CA90062148400620004002804D1034B95
:106B70001A680823138300E0014870473CA90062AB
:106B8000148400620004002801D0044804E0044B8F
:106B90001A68938913830020704700004CA9006293
:106BA0003CA9006270470000704700007047000079
:106BB00000B52D4B1B689B7C012B11D101200021BE
:106BC00000F086FE80210120490001F005F8012037
:106BD000202100F09BFE0120002100F0B3FE38E0F0
:106BE0000120002100F074FE80210120490001F005
:106BF00007F80120402101F061F8C021012089013E
:106C000000F0A0FE0120002100F080FE0220002103
:106C100000F05EFEA0210220490000F0DDFF02200E
:106C2000202100F073FE0220002100F08BFEC02125
:106C30000320C90000F04CFEC0210320490000F0F1
:106C4000CBFF0320002100F07DFE0320202100F077
:106C50005DFE064B1A881204120C08210A43120426
:106C6000120C1A8001BC00473CA90062E0A8006237
:106C70007047000070470000704700007047000038
:106C8000044B1A8812040421120C0A431204120C39
:106C90001A807047E0A80062014B03607047000053
:106CA00014A900620847C04630B5094B49000132BB
:106CB000CC185510002106E0437802781B021A43D5
:106CC00004C402300131A942F6D130BC01BC0047F6
:106CD000008000C010B5084B013249005410C9189B
:106CE000002203E008C9013203800230A242F9D138
:106CF00010BC01BC00470000008000C000B50004CB
:106D0000002804D1074B1A680123138308E0064BBF
:106D10001B681B6800F07DFD024B1B68181C1230BD
:106D200002BC08473CA9006238A9006200B5000413
:106D3000002804D1074B1A680123138308E0064B8F
:106D40001B689B6800F065FD024B1B68181C143023
:106D500002BC08473CA9006238A9006200B50004E3
:106D6000244A002803D112680223138340E02248FA
:106D70000023038011680A787F231A400FD1497CD1
:106D80008B0603D5037802221343037002784B0667
:106D900001D5012324E002235B42134021E0012AB4
:106DA00026D0022A01D0002022E04B7A0F221A407E
:106DB0001B069200002B07DA104953181B6830227B
:106DC0001340102B0ED109E00C4953181A68C02348
:106DD0009B011A4080235B019A4203D10378012270
:106DE00013430370064B1B681B6900F012FD024839
:106DF00002BC08473CA90062FCA80062008800C0F1
:106E000038A9006270B5344B19680A787F231A409C
:106E100005D14A7C21235B421A404A7454E0022A7D
:106E200054D18B88002B51D10B7A002B4ED14C7A48
:106E30008023201C984323068200284D002B04DA6F
:106E4000274E93191A68302304E0254E93191A68C7
:106E5000C0239B011A402B78984237D2002A35D0A4
:106E60008B7C002B32D0802382001C420ED01C4928
:106E700053181B6830221340102B20D1041C00F043
:106E80007FFE201C302100F041FD18E0144BD41887
:106E90002268C025AD0180232A405B019A420ED1B1
:106EA000002805D10F4B5433197800F007FF01E09B
:106EB00000F052FE23680C4A13406B4023600B4BDA
:106EC0001B685B6900F0A5FC002001E00420404243
:106ED00070BC02BC084700003CA90062F882006256
:106EE000008800C0BC8300628FBF000038A9006228
:106EF000F0B51E4B1B681A8B1E1C18361B7C002A13
:106F000006D1042B04D11A4A10230727138026E048
:106F1000B488A24201D8042700E00227944200D995
:106F2000141CB368201C00F074FC051C002000F049
:106F30007BFE221C011C281CFFF7B6FE211C002032
:106F400000F092FE33881B1B33807388084AE418D4
:106F5000302374801380074AC0239B011380034BA6
:106F60001B681F74F0BC01BC004700003CA9006214
:106F7000F6A80062F8A8006200B50C4B54331978EB
:106F8000002000F09BFE0A4B1B68197C082906D1E3
:106F9000084A80235B011380074A102313800020D6
:106FA000092900D1012002BC08470000BC8300620F
:106FB0003CA90062F8A80062F6A8006210B5084B70
:106FC0001A6800040C1C518B002803D1A3885B1A9B
:106FD000138301E02368581810BC02BC0847000066
:106FE0003CA90062F0B5B74B1B68B74A1B04DB0B2A
:106FF0009B181B88B54E5C003568B54BE2182B7C9E
:10700000092B12D013782B70B24BE35CB24A6B7031
:10701000A418608801F066F8A880E088356801F05F
:1070200061F828813268638993813468A1890123DA
:1070300023746378002900D0ECE01B0622781F0E31
:107040007F231A405AD1092F21D1A44B62795B7852
:107050009A4200D9BCE02379002B00D0B8E0238904
:10706000002B00D0B4E0FEF777FC35689C4C01287B
:1070700001D16B7907E09B4B1A889B4B9A4201D157
:10708000022300E00123AB7423685B689CE0052FBA
:1070900011D163791B06002B00DAB6E02379002BAF
:1070A00000D0B2E02389002B00D0AEE0A37C002BFF
:1070B00000D0AAE09CE0032F14D16379012B00D00B
:1070C0008AE02389002B00D086E0627C930600D4FE
:1070D00082E0202313436374814B1B68DB6900F05B
:1070E00098FB85E0012F77D16379012B74D1238937
:1070F000002B71D1637C9C066ED525E0012A1FD13F
:107100000B2F69D1794B1B68607A5B6B617900F05A
:1071100080FB3268937C002B5AD0002858D1137A18
:10712000002B55D11379002B52D16D4B1B68DB68B6
:1071300000F06FFB33685A7ADA745A791A7545E0B1
:10714000022A49D1012F04D1FFF75CFE0006001688
:1071500040E0032F40D1657A8023281C98432B06FA
:107160005E4E8100002B04DA614A8B181A683023C6
:1071700004E05F4A8B181A68C0239B01111C194058
:107180003378984224D2A388002B21D100291FD024
:10719000A37C002B1CD08023514C81001D4206D0C3
:1071A000534BC918534A0B681340102206E0504A4B
:1071B00089180B68504A13408022520153401B0427
:1071C0001B0C0B6023689B6900F023FB002001E08F
:1071D0000420404200280BD0444B1B68381C1B6B1A
:1071E00000F017FB431D01D109220FE000280CD14C
:1071F000344B1B68414C1B04DB0B1B1900221A602B
:107200003F4A30231380062200E008222F4B1B68E0
:107210001A74FBE01B061B0E062B2DD122787F2350
:107220001A4018D12379012B03D1304B1B68996B7D
:10723000AFE0022B03D12D4B1B68D96BA9E0032BC8
:1072400003D12A4B1B68196CA3E0212B10D0222BF1
:1072500000D0AAE005E0012A00D0A6E02379222B85
:1072600003D1224B1B68996C93E0212B00D09CE04A
:107270001E4B1B68596C8CE0002B65D1A388002B3A
:1072800000D092E0022900D08FE0237A002B00D0BA
:107290008BE022787F231A4004D12389002B00D071
:1072A00083E04FE0012A2DD1104B1B68607A5B6BA5
:1072B000002100F0AEFA002877D133689B7C002BC8
:1072C00073D03FE0508800C0088000C03CA9006235
:1072D000008000C0018000C0028000C0F88200620F
:1072E00038A90062FE1F0C4002A0000010A9006235
:1072F000008800C0BF8F00008FBF0000048000C066
:10730000F6A80062022A50D1637A0F22191C11409C
:10731000181C70221B0610403F4E8A00002B04DA16
:107320003E4C13191A68302304E03C4C13191A68B8
:10733000C0239B011A403378994236D2002834D1B9
:10734000002A32D0364926E0082B05D122787F2347
:107350001A422AD133491EE00A2B26D123787F22F4
:107360001340012B21D1A37C002B1ED0A388002B1E
:107370001BD1237A002B18D1012916D12A4B1B6867
:10738000607A5B6B002100F044FA00280DD1274998
:1073900001E0002909D0264B1A68002353831162AB
:1073A000002000F035FA00200BE01F4B204C1A683B
:1073B00023685878D36A00F02CFA421D01D1226864
:1073C00005E01B4B1A681B4B118B994201D1092315
:1073D00004E0043001D0002902D10823137415E021
:1073E00013781B06002B0BDA9389994200D913837B
:1073F0000D4B1B6854331B789383FFF779FD05E031
:10740000032313740C4AC0239B011380FFF7B4FDC0
:10741000F0BC02BC08470000F8820062008800C08F
:107420005D6D0062FD6C006210A900622D6D00624E
:107430003CA90062FFFF0000F8A8006270B50E4B87
:1074400000061D78060E00240AE02006000E0B4BF5
:107450008100C9180B680A4A134003430B600134CA
:10746000AC42F2D380235B423343064A1B061B0E19
:10747000136070BC01BC0047F8820062008800C045
:107480008F8F00004C8800C010B5154C21680B7C14
:10749000022B01D0042B04D1FFF72AFD23681A7CAC
:1074A00016E0062B13D14B78052B0BD10A787F23DE
:1074B0001A4207D14879FFF7C1FF0A4B1B681B6AC4
:1074C00000F0A7F9084B1B685B6A00F0A2F90822DC
:1074D000034B1B681A74FFF74FFD10BC02BC084732
:1074E0003CA9006238A9006210A90062F0B5384BCF
:1074F0001C68237C032B01D0052B58D1251C183583
:10750000AB68228B002B2CD0002A01D100212FE068
:10751000AE88964200D9161C931B23836B88F31800
:107520006B80A37C301C012B0FD12A4F3B68012BB1
:107530000BD1002000F088FB274A40008018311C46
:10754000FEF7A0FC238BBB800BE0AB6800F061F979
:10755000041C002000F078FB321C011C201CFFF7EB
:10756000B9FB2988002903D01C4AC0239B01138042
:10757000AB888B4203D8164B1A68032304E0144AE5
:10758000002903D01268052313740CE01268062347
:107590001374134B1B68134A1B04DB0B9B18124A12
:1075A0001960302313800A4B1B681A7C07E0072BF5
:1075B00004D10E4B1B689B6A00F02BF90822044B88
:1075C0001B681A74FFF7D8FCF0BC02BC0847000027
:1075D0003CA9006244A90062008000C0F8A80062D3
:1075E000508800C0048000C0F6A8006210A90062A4
:1075F0007047000030B599E0534B136002880F23A9
:10760000524D13402B70002B6ED1514DC0222B6870
:107610005049920113400B802B6830224E49134091
:107620000B804E4A2B6813408022920153401B046A
:107630001B0C2B604A4A2B681340202253401B042A
:107640001B0C2B600288102313420BD12B68454A78
:1076500013402B60FFF718FF88232A681B021A4289
:107660001ED00CE02B681B041C0C220605D52B68D1
:107670003C4A13402B60FFF707FF230506D52B6814
:10768000394A13402B60FFF7ADFC09E080231B0251
:107690001C4205D02B68344A13402B60FFF726FFAD
:1076A0002B482E4A03681A402A4B198880235B0115
:1076B000194200D05A4080239B01194200D05A4001
:1076C0000260274A03681A40234B1988CB0603D56A
:1076D000102353401B041A0C8B0603D52023534060
:1076E0001B041A0C026021E0194A980081180B68EB
:1076F0001B041C0C002B09DA0B681B4A13400B609F
:107700001A4BC318043B1B6800F083F823060DD501
:107710002B780F4A9B009818026812490A400260B1
:10772000134A9B18043B1B6800F073F8114A136856
:1077300011481B041B0C038003881B04002B00DA78
:107740005AE730BC01BC0047FF7F0000F4A800628C
:10775000008800C0F8A80062F6A800628FBF000091
:10776000BF8F00000F8F00008F0F00005882006253
:1077700094820062448800C00CA9006230B528E001
:107780001A4B0B6012880F23194D1340194A9800A9
:107790002B7081180B681B041C0C002B09DA0B687A
:1077A000154A13400B60154BC318043B1B6800F0CF
:1077B00030F823060DD52B780E4A9B0098180268E6
:1077C0000F490A4002600F4A9B18043B1B6800F0F7
:1077D00020F80D490B680D4A1B041B0C13801388FD
:1077E0001B04002BCCDB30BC01BC0047FF7F00003A
:1077F000F4A80062008800C08F0F00005882006269
:107800000F8F000094820062448800C00CA90062BF
:1078100008471847024B0004000C1860704700002E
:10782000408800C0024B18680004000C704700003C
:10783000408800C0024B0004000C18607047000034
:10784000448800C0024B18680004000C7047000018
:10785000448800C0024B18680004000C7047000008
:10786000488800C0024B0004000C186070470000FC
:107870004C8800C0024B18680004000C70470000E0
:107880004C8800C0024B1840024B18607047000043
:10789000F8FF0000508800C0024B18680004000C7C
:1078A00070470000508800C0034B00060904800D9B
:1078B000090CC01801607047008800C0034B000627
:1078C000800DC01800680004000C7047008800C0DC
:1078D000064B0006800DC0180368054A0904090C10
:1078E00013400B431B041B0C03607047008800C04F
:1078F0008F89FFFF044B0006800DC0180068C0236D
:10790000DB00184070470000008800C00B4B0006E9
:10791000800DC01809040268094B090C1A40CB06F7
:1079200003D5102353401B041A0C8B0603D52023C8
:1079300053401B041A0C026070470000008800C00E
:10794000BF8F00000A4B0006800DC0180268094B6B
:1079500009041A408023090C5B01194200D05A40E7
:1079600080239B01194200D05A40026070470000FA
:10797000008800C08FBF0000034B0006800DC018B8
:107980000068302318407047008800C0044B000690
:10799000800DC0180068C0239B011840704700008C
:1079A000008800C0064B0006800DC0180368054A19
:1079B0001340302253401B041B0C0360704700002F
:1079C000008800C0BF8F0000064B0006800DC01865
:1079D0000368054A1340C022920153401B041B0C4C
:1079E00003607047008800C08FBF0000054B000691
:1079F000800DC0180368802252001343024A1340CE
:107A000003607047008800C08F8F0000044B0006A1
:107A1000800DC0180368034A1340036070470000DC
:107A2000008800C08F8E0000044B0006800DC01837
:107A30000368034A1340036070470000008800C0D9
:107A40008F8E0000054B0006800DC0180368802251
:107A500052001343024A134003607047008800C07D
:107A60008F8F0000054B0006800DC0180368802230
:107A700052001343024A134003607047008800C05D
:107A80008F8F0000044B0006800DC0180368034A66
:107A90001340036070470000008800C08F8E000014
:107AA000054B0006800DC0180368302213400020EB
:107AB000102B00D101207047008800C0074B000642
:107AC000800DC0180268C0239B011A4080235B010F
:107AD00000209A4200D1012070470000008800C0B9
:107AE000044B0006800DC0180368034A134003606E
:107AF00070470000008800C08F0F0000044B000694
:107B0000800DC0180368034A1340036070470000EB
:107B1000008800C00F8F0000054B0006800DC018C4
:107B20000268044B1A408023DB011A43026070474D
:107B3000008800C08F8F0000054B0006800DC01824
:107B40000368044A13404022134303607047000057
:107B5000008800C08F8F0000074B0006800DC01802
:107B600080210368C9010B4204D00368034A134013
:107B70000B43036070470000008800C08F8F000037
:107B8000064B0006800DC018036840210B4204D04C
:107B90000368034A13400B4303607047008800C02A
:107BA0008F8F0000054B0006800DC0180368044A43
:107BB0000906090E13400B4303607047008800C09C
:107BC0008F8F0000034B0006800DC01800680F2344
:107BD00018407047008800C0074B1B6800061B0454
:107BE000400D1B0C1B18054A09045B00490C9B182F
:107BF0004900196070470000508800C0008000C034
:107C0000074B1B6800061B04400D1B0C1B18054A84
:107C100009045B00490C9B1849001960704700007B
:107C2000508800C0088000C0054B1B6800061B047C
:107C3000400D1B0C1B18034A5B009B1818887047EB
:107C4000508800C0008000C0054B1B6800061B0464
:107C5000400D1B0C1B18034A5B009B1818887047CB
:107C6000508800C0088000C0064B1B6800061B043B
:107C7000400D1B0C1B18044A09045B00090C9B18DF
:107C800019607047508800C0048000C009040A0CC5
:107C90003E2A0CD91F23490D1A4202D14B1E1B0448
:107CA000190C80238A021B021A43026005E0490C6A
:107CB000D30700D501318B020360704710B5124B1A
:107CC0001B6800061B04400D1B0C1B1809040F4CFD
:107CD0005B000A0C18193E2A0CD91F23490D1A42C1
:107CE00002D14B1E1B04190C80238A021B021A436B
:107CF000026005E0490CD30700D501318B02036017
:107D000010BC01BC00470000508800C00C8000C0BF
:107D1000064B1B6800061B04400D1B0C1B18044A75
:107D20005B009B181888034B18407047508800C0B0
:107D3000048000C0FF030000064B1B6800061B0404
:107D4000400D1B0C1B18044A5B009B181888034B42
:107D500018407047508800C00C8000C0FF0300002E
:107D600030B50E4C236800061B04400D1B0C0C4D57
:107D70001B1809045B00490C5B1949001960236852
:107D80001B041B0C1B18074912045B00520C5B18E8
:107D900052001A6030BC01BC00470000508800C08F
:107DA000008000C0088000C0074B1B6800061B0451
:107DB000400D1B0C1B18054A09045B00490C9B185D
:107DC0004900196070470000508800C0008000C062
:107DD000074B1B6800061B04400D1B0C1B18054AB3
:107DE00009045B00490C9B184900196070470000AA
:107DF000508800C0088000C0054B1B6800061B04AB
:107E0000400D1B0C1B18034A5B009B181888704719
:107E1000508800C0008000C0054B1B6800061B0492
:107E2000400D1B0C1B18034A5B009B1818887047F9
:107E3000508800C0088000C070B509060006120412
:107E4000090E040E100C01291ED12A4B1B681B04BD
:107E5000E5001B0C5B19284E5B009C193E280CD9D1
:107E60001F23520D184202D1531E1B041A0C8023EB
:107E700092021B021A4322601BE0520C084200D0FF
:107E800001329302236014E002292FD1194A1368AA
:107E90001B04E1001B0C5B18174C5B001B191860DE
:107EA00013681B041B0C5B18144E5B009B191860B5
:107EB0001CE0104B1B681B041B0C5B190F4A5B007A
:107EC00099183E280CD91F234209184202D1531E8B
:107ED0001B041A0C802392021B021A430A6005E05D
:107EE0004308C40700D501339B020B6070BC01BC82
:107EF00000470000508800C0048000C00C8000C013
:107F000030B500060906050E080E11040C0C0128F8
:107F10001ED1174B1B681B04EA001B0C9B18154A4B
:107F20005B009D183E2C0CD91F234A0D1C4202D128
:107F3000531E1B041A0C802392021B021A432A6050
:107F400012E04A0C044200D0013293022B600BE095
:107F5000022809D1064B1B681B04EA001B0C9B1866
:107F6000044A5B009B181C6030BC01BC0047000049
:107F7000508800C0048000C030B500060906050E18
:107F8000080E11040C0C01281ED1174B1B681B0492
:107F9000EA001B0C9B18154A5B009D183E2C0CD95F
:107FA0001F234A0D1C4202D1531E1B041A0C8023AE
:107FB00092021B021A432A6012E04A0C044200D0CB
:107FC000013293022B600BE0022809D1064B1B689B
:107FD0001B04EA001B0C9B18044A5B009B181C60E6
:107FE00030BC01BC00470000508800C00C8000C0BD
:107FF000064B1B6800061B04400D1B0C1B18044A93
:108000005B009B181888034B18407047508800C0CD
:10801000048000C0FF030000064B1B6800061B0421
:10802000400D1B0C1B18044A5B009B181888034B5F
:1080300018407047508800C00C8000C0FF0300004B
:108040000F490B6800061B04400D1B0C0D4A1B1842
:108050005B009B181A88FC231B021A4201D00120E6
:108060000DE00B681B041B0C074A1B185B009B18D8
:108070001A88064B1A4201D0022000E00020704707
:10808000508800C00C8000C0048000C0FF030000C6
:1080900009060006090E000E012909D10B4B8100CB
:1080A000C9180B680A4A1340402213430B600BE0C7
:1080B000022909D1054B8100C9180A68044B1A40EE
:1080C0008023DB011A430A6070470000008800C06B
:1080D0008F8F000000060906000C090E0143081CE2
:1080E000704700000004030E0002000C0343181C3C
:1080F0007047000010B50006000E0D4A83009B1863
:108100001B6809061B04090E1C0C012904D18300FD
:108110009B18084A224007E0022906D1044A83003E
:108120009B1810229443221C1A6010BC01BC00470B
:10813000008800C0FFEFFFFF52494656303130360D
:108140000A0000004F53452100000000000000001D
:1081500000000000000000001F0000001C000000E4
:108160001F0000001E0000001F0000001E00000095
:108170001F0000001F0000001E0000001F00000084
:108180001E0000001F0000005252465630313035AC
:10819000001203300030003000300030003000307A
:1081A00000310000666100626E610062766100620B
:1081B000826100629E610062BC610062A1200000D9
:1081C00000000200000000000C03300031002E000F
:1081D00030003100300342006100720063006F0024
:1081E00064006500200044006500760069006300BB
:1081F0006500200043006F006D00200050006F00FC
:108200007200740024034F00500054004F002D00F2
:1082100045006C0065006300740072006F006E0022
:108220006900630073002E00040309040000A0E34A
:108230000010A0E10020A0E100B0A0E10070A0E1EA
:1082400008A09FE51AFF2FE1060000EF1EFF2FE1B7
:048250000140006287
:108254000900000069620062F1750062F175006254
:10826400F1750062F1750062F1750062F1750062EA
:10827400F1750062F1750062F1750062F1750062DA
:10828400F1750062F1750062F1750062F1750062CA
:10829400FD610062A1620062E1620062F175006248
:1082A400F1750062F1750062F1750062F1750062AA
:1082B400F1750062F1750062F1750062F17500629A
:1082C400F1750062F1750062F17500622882006246
:1082D400040000000482006224000000D4810062D3
:1082E40030000000C88100620C00000000000000A3
:1082F4000000000004020000010000006962006246
:10830400F1750062F1750062F1750062F175006249
:10831400F1750062F1750062F1750062F175006239
:10832400F1750062F1750062F1750062F175006229
:10833400F1750062F1750062FD610062A162006284
:10834400E1620062F1750062F1750062F17500622C
:10835400F1750062F1750062F1750062F1750062F9
:10836400F1750062F1750062F1750062F1750062E9
:10837400F17500625F840062190000001C840062D1
:10838400430000008A8400621200000078840062C6
:1083940012000000AD6B0062B16B0062716C006290
:1083A400756C0062A56B0062A96B0062796C006257
:1083B4007D6C0062816C006219630062F16300628B
:1083C40039640062B1640062A965006235660062C6
:1083D40085660062A5660062F96600623168006223
:1083E40091690062996900625D6A0062356B00629E
:1083F4009D6A0062CD6A0062FD6A00622D6B0062B4
:10840400316B0062996C00620000000040000000C3
:1084140000C20100000008000902430002020080BB
:10842400FA090400000102020100052400100105FC
:108434002401000104240202052406000107058327
:108444000308000A09040100020A000000070501EC
:1084540002400000070582024000000902190001E1
:10846400010080FA0904000001FF000000070581F3
:108474000240000012011001020000405A0602A04E
:1084840001010102030112011001000000405A061B
:088494000900010101020301CE
:040000056200822CE7
:00000001FF
:0200000460009A
:100010005345435245545859000000000000000069
:1000200000B500F0E3FC00F0D5FC03F097FC01F014
:1000300039FC01F0DFFC03F0AFF800F0F7FC013011
:1000400005D101210320494201F0FAF8FEE700F052
:10005000D9FD01F043FB0CF0EFFF06F06FFD0DF052
:1000600031FE00200CF0A4FC002804D001200CF08C
:1000700097FD01F00DFD0CF0ADFF0FF05DFC0BF0F6
:10008000F7F809F0F3FA01F0CFFC01F0CDFD10F024
:10009000EFFA03F081FA09F063F9002803D005F0C4
:1000A0000DFD0EF01DFD074B1B6800F00DF800283C
:1000B00001D100F0EFFC0EF005FE01F0E9FC01BCFF
:0C00C00000470000080001621847C0461D
:1001000052424756303232310000000000000000F9
:100110008401006001002DE900004FE1C00080E390
:1001200000F061E10100BDE81EFF2FE101002DE9B3
:1001300000004FE18000C0E300F061E10100BDE894
:100140001EFF2FE101002DE9D300A0E300F061E1E3
:100150000100BDE81EFF2FE158069FE51EFF2FE1BD
:1001600054069FE5000090E51EFF2FE110402DE9A9
:100170000D00A0E1FB2901EB00009DE51040BDE86A
:100180001EFF2FE130402DE900404FE1200014E335
:10019000B2405E11FF4CC41304401E05FF44C4036B
:1001A00018569FE5044195E70FE0A0E114FF2FE109
:1001B0003040BDE80EF0B0E1020000EF00369FE5F0
:1001C000000083E51EFF2FE1140100602C01006098
:1001D0005801006044010060600100605801006047
:1001E0006C010060E10A0060A52200600D13006050
:1001F00041120060F9190060111A0060790D006069
:10020000210B0060E91100609D1000602D0B006063
:10021000C90B00609D080060C90A00604D9600602F
:10022000B193006029930060E593006045930060FE
:100230006193006079380060993500606536006030
:10024000C93800606D3800608D380060B9380060D2
:10025000B1370060813600604522006015200060E3
:10026000491E00600D22006089220060A91E006006
:10027000891D0060691E0060651C0060FD0D006046
:10028000210D0060990D0060350D0060D50D0060F6
:10029000B10C0060150D00600D2300607525006035
:1002A000612500608125006095250060492300607C
:1002B000911A006085C80060A1CB00601DCA006073
:1002C000DD1300607118006079190060F517006097
:1002D0004D0C0160290F0160A1090160650C0160EE
:1002E000910F01606D110160C10F01600D3400605C
:1002F0009134006055320060D933006031330060C2
:10030000B1320060752B0060D52C0160E1DE006029
:1003100095DE006025DE0060F1FA006065FB00609C
:100320005DFB006061FB0060DDF900601DFB0060AB
:10033000B1FA00608DFA00603DFA0060497E02600B
:100340002DFB0060B4070060B4070060B4070060D4
:1003500071FB006021F90060B4070060B407006021
:10036000CD7D0260157E0260B4070060B4070060B6
:10037000ED7D0260B97D026081F90060357E02602A
:10038000A9F90060B9F90060EDF8006001F90060BA
:100390001D060160B4070060B1F80060A99E00600E
:1003A00091B00060D9990060D940006009410060B7
:1003B0003941006091B00060BDBA0060519F00609B
:1003C000E5370260F137026099380260B1380260A7
:1003D0004139026065390260713A0260393A02605F
:1003E000693B0260593B0260853B02606D3A0260E6
:1003F000CD3A02609D3B0260C93A0260B53B0260A3
:10040000B53C02602D3C0260D13C0260A93E026016
:10041000093E026059430260694002600144026083
:100420007D4302601944026085440260F944026021
:10043000414502607D450260894502609145026048
:10044000AD450260594702606D4702608147026016
:10045000A54D0260914E0260F94E0260894F026024
:10046000115902600D5902606962026039620260CE
:10047000896202604D62026005620260B9620260D8
:100480009D6202602D630260DD6202604163026072
:1004900089630260956802607D680260A9680260F5
:1004A000D1680260F568026011690260196A026031
:1004B000596A0260256B02609D6A0260656B02608A
:1004C000D96A0260816B0260D16B0260516C02607C
:1004D000D96C0260396D0260816D0260E56D026069
:1004E000AD6E02605190026095830260919002604F
:1004F000F9A8026019A90260A9A90260DDA9026039
:10050000FDA90260CDAA0260F5AA02602D2A026050
:10051000CD3B026009470260A1460260C14C026007
:100520002D4D02602D200060FD950060ED6302609E
:100530008128026035BF0260B1BF0260C1BF0260A6
:1005400055C0026065C002602DC1026005C2026034
:1005500005C2026005C20260CCC502604CC50260E3
:1005600024C5026008C2026078C5026014C202603D
:1005700024C5026014C20260B8C5026010C20260E5
:10058000B8C502604CC50260CCC5026078C5026087
:1005900010C20260C8C8026038C60260C8C80260E3
:1005A00038C60260CCCB0260E4CA0260E4CA0260D2
:1005B000D4CA026084CB026068CB0260DCCA0260ED
:1005C000B4CB0260DCCA0260FCCB0260E4CB026008
:1005D000E4CA02609CCB026084CB0260D4CA026091
:1005E00014CC026014CC0260C96B0060410D006045
:1005F0004D0D006005D10060B5D60060590D00605A
:10060000690D0060F53800605128026041280260E1
:10061000417C0260ED7A0260756F0260B17A02601F
:10062000CD7A02603528026070CC026070CC026026
:10063000D10A0060650B00600D0B0060F50A0060D8
:1006400061DE0060752B006089CA0060491F006090
:1006500079460060D54A006015D1006075200060C1
:10066000E5200060C9410060D9D60060B1D70060C4
:10067000E5C9006089A0006079AA0060F997006070
:10068000719E0060659E0060519E0060591400607C
:1006900061AF0060B40700602DD10060B1DB006085
:1006A00071B600603D3E00608DFE0060B4070060E2
:1006B000B4070060B4070060B4070060B4070060CE
:1006C000B4070060B4070060B4070060B4070060BE
:1006D000B4070060B4070060B40700604593006091
:1006E000F11C0060C11D0060D5210060292200605E
:1006F000612200602521006041CA0060213700604E
:1007000019380060DDD00060E5D000602DD80060B1
:10071000FDD70060C5D000605DD800601521026083
:10072000B126026021200260052102609D23026043
:10073000FD5B0060F99300603D1F0060EDD000603C
:1007400065210060B4070060B4070060B407006072
:10075000B4070060B4070060B4070060B40700602D
:10076000B4070060B4070060B4070060B40700601D
:10077000B4070060B4070060B4070060B40700600D
:10078000B4070060B4070060B4070060B4070060FD
:10079000B4070060B4070060B4070060B4070060ED
:1007A000B4070060B4070060B4070060B4070060DD
:1007B000B40700601EFF2FE1E4010060A874002070
:1007C000C80100602800016258209FE5B430D2E1E2
:1007D0000010A0E3BC11C2E14C009FE5B000D0E1E5
:1007E000030010E30EF0A00140009FE5B010D0E13F
:1007F000021081E2020C51E30EF0A081B010C0E1C2
:100800002C009FE5001090E5013083E2B230C1E09A
:10081000B020D2E1032042E0012082E2B220C1E018
:10082000B010C0E10EF0A0E100A000E036130162BC
:100830005023016244230162F0B581B0009001F0C1
:10084000DBF801251DE06F00381C16E0124BEA189A
:100850000133C118552316780C78137056235B4268
:100860000B701378552B03D1400016700C7004E008
:1008700001F0CEF8012040420AE0009A9042E5D310
:100880003D1C009A53109D42DDD301F0C1F80020B9
:1008900001B0F0BC02BC08470000006210B5424B3A
:1008A000424A9C1A424B9C4201D8002009E0802019
:1008B0004002FFF7C1FF013001D1002071E080202C
:1008C00040023C4B9C420AD980208002FFF7B4FFD3
:1008D000013002D18020400263E080208002364B4C
:1008E0009C420AD98020C002FFF7A6FF013002D146
:1008F0008020800255E08020C002304B9C420AD903
:1009000080200003FFF798FF013002D18020C00251
:1009100047E0802000032A4B9C420AD980204003F4
:10092000FFF78AFF013002D18020000339E08020E8
:100930004003244B9C420AD980208003FFF77CFFB0
:10094000013002D1802040032BE0802080031E4B29
:100950009C420AD98020C003FFF76EFF013002D10C
:10096000802080031DE08020C003184B9C420AD9E0
:1009700080200004FFF760FF013002D18020C00317
:100980000FE080200004124B9C420AD980204004D2
:10099000FFF752FF013002D18020000401E08020E7
:1009A000400410BC02BC0847000000630000006265
:1009B000FFFF0000FFFF0100FFFF0300FFFF070034
:1009C000FFFF0F00FFFF1F00FFFF3F00FFFF7F0043
:1009D000FFFFFF00034A044901E0002308C28A42E6
:1009E000FBD370470000016290C001620448054AD1
:1009F000054901E008C808C28A42FBD370470000DD
:100A000000AB0460606D0020A08100200448054A0E
:100A1000054901E008C808C28A42FBD370470000BC
:100A200000AB0460606D00204070002000B581B014
:100A3000FFF734FF144A154B80181860904202D11A
:100A4000012040421CE0421E012082431388694677
:100A50001B0402311B0C0B8013881B041B0C0B8026
:100A6000002313801023138013881B041B0C0B809E
:100A700013881B041B0C0B80054B10801380002077
:100A800001B002BC084700000000006200300162B3
:100A90001F9DFFFF00B509490948102226F0A2F961
:100AA000002808D101F000FA0120962100F0A6F9F3
:100AB000044B00F0A5F801BC00470000E48E046080
:100AC0000000014000010140004870470001006043
:100AD00000B5024926F000F901BC004700010060A2
:100AE00000B5034B1B6800F08BF802BC0847000000
:100AF0000400016210B5041CFFF7F2FF011C201C6A
:100B000026F0EAF810BC01BC0047000000B503491C
:100B1000102226F0CBF901BC004700001000006055
:100B2000014B186870470000A874002030B594B0DD
:100B3000684625F067FB0AAC6B4607CB07C407CBBA
:100B400007C407CB07C41B6804482360044BC01AC2
:100B5000119B14B0C01A30BC02BC084700000162EF
:100B600000400062F0B58AB0041C0E1C0092002800
:100B700001DB019104E02D230B704B1C01934442D7
:100B8000104F002202AB1E25DA770CE00099201CE2
:100B90002BF0CCFAC25D02AB5A55201C00992BF009
:100BA0000FFA013D041C002C01D0002DEED10AAB40
:100BB000E9181F39019826F08FF8301C0AB0F0BCF4
:100BC00002BC0847F88E046010B50A4A1368041C7A
:100BD000002B01D1084B13601068084B4118994253
:100BE00004D901200C234042236000E0116010BCB6
:100BF00002BC084700000162004000620000016280
:100C00001847C04600B5114B1A1C5032002102C3D0
:100C10009342FBD10E4A0F4B1A800F4A043B1A80B5
:100C20000E4A0C3B1A800422524208331A800C4BA5
:100C300019600C4B19600C4B19600C4B0C4A196075
:100C40000020022100F014FE01BC0047185301628D
:100C500017400000189000E04080FFFF881300005C
:100C60006C530162705301627853016274530162E4
:100C7000BD0E0060064A074B1A80074A04331A80EB
:100C8000064A103B1A800422524208331A807047E9
:100C90004080FFFF149000E0174000008813000020
:100CA000024A50231380043213807047149000E0EE
:100CB00000B5054B186001E00BF0E6FE024B1B6827
:100CC000002BF9D101BC0047785301620004064BA8
:100CD000000C434381B001E0009B013B0093009B6B
:100CE000002BF9D101B070475C4400000004000CF7
:100CF00043011B1A9B001B18DA0081B0D21A009224
:100D000002E0009B013B0093009B002BF9D101B056
:100D100070470000014B1860704700007453016277
:100D2000034B1B680020002B00D1012070470000FE
:100D300074530162014B18687047000074530162DC
:100D4000014B18687047000094C00162014B1860A5
:100D50007047000094C00162024B18880004000C28
:100D60007047000090C00162024B0004000C188024
:100D70007047000090C00162054B1B68002B05D135
:100D8000044B1B68002B01D1002000E001207047BC
:100D9000385401621C59016210B50C4A1368834231
:100DA00010D00B4B04329A42F8D1503A0021141C57
:100DB0001368002B02D18B00185103E0013104327B
:100DC0001429F5D110BC01BC004700001853016282
:100DD0006853016210B5084900220C1C0B6883425D
:100DE00003D192000023135103E001320431142A8D
:100DF000F4D110BC01BC004718530162012802D194
:100E000000292DD012E0032821D0032804DC00287B
:100E100026D0012848D109E010282AD0202835D032
:100E2000052841D1214A012313600CE0312901D862
:100E3000322103E01E4B994200D9191C1B4B19604B
:100E40001A681C4B1A601C4A002313602CE01A4BD2
:100E50001B68002B28D1174B1A68144B1A6023E02B
:100E6000124B002119601A68124B1A60124B19605C
:100E70001AE00E4B00221A600F4A1368FA21013360
:100E8000890013608B420FDD11600DE00A490B6889
:100E9000012B05D1074B1A68044B1A60002302E0AE
:100EA000002B01DD013B0B607047000070530162B5
:100EB00020BF02006C5301621453016230B5624AD4
:100EC000136801331360614A138880211B044902AF
:100ED0005B181B0C13805E4A1368002B02D013684A
:100EE000013B13605B4A1368002B02D01368013B7F
:100EF000136000F0A9FD584B1B68002B04D1574B21
:100F00001B68002B00D197E008F00EFA041C08F0D3
:100F100019FA231C0340524C002B2DD02268514B50
:100F20009A420ED14C4B1B68002B06D14B4B1B68D1
:100F3000002B02D1FA22920000E0FA22484B1A60FC
:100F40001CE02368484DAB4218D02368013B236066
:100F50002368002B04D0FA2322689B009A420DD903
:100F60000BF080FD002804D0256005200BF0FAFA74
:100F700004E000F07DFD01E03A4B23603B4B1B6831
:100F8000DA0704D5A0231B061B68590701D500F01A
:100F90006FFD374C2368002B2ED021F0E3F9002899
:100FA00026D10BF03BFD002822D108F01BFC0028C5
:100FB0001ED108F021FC00281AD100F00FFA0028F9
:100FC00016D108F0B1F9002812D108F0BBF90028B9
:100FD0000ED12368013B23602368002B0CD1254BE5
:100FE0001A6801239340244A13600BF0D9FD03E0F3
:100FF000224B1A681E4B1A60214C2268002A0DD021
:10100000154B1B68002B05D01E4B9A4202D91E4B74
:101010009A4203D91D4B1A6000F03EF81C4B043471
:101020009C42EAD11B4B00221A80042252420C3B04
:101030001A8030BC01BC004708F076F9041C08F0A7
:1010400081F9231C034366E794C0016290C00162EA
:101050007853016274530162385401621C59016271
:10106000407000205A5A0000A5A50000080000A00A
:101070007053016204F8FFFF40F8FFFF6C530162F8
:1010800018530162FFFF0040FEFF03400C000162A5
:10109000685301621C9000E01047C046054B0422D3
:1010A00052421A80052208331A805022043B1A80CB
:1010B0007047000010C000E010B50E4B9B7A041C76
:1010C0009A0703D50BF0AAFC002810D1002C09D0F8
:1010D000094B1A8809491204120C0A431204120C13
:1010E0001A8004E00449064B0A8813400B8010BCA8
:1010F00001BC00473C0001620C5000E00080FFFF93
:10110000FF7F000010B50F4B9B7A041C9A0703D594
:101110000BF084FC002811D1002C0AD00A4B1A884D
:1011200080211204120CC9010A431204120C1A8005
:1011300004E00549054B0A8813400B8010BC01BC34
:10114000004700003C0001620C5000E0FFBF0000BF
:1011500000280AD0084B1A8880211204120C890139
:101160000A431204120C1A8004E00349034B0A8854
:1011700013400B80704700000C5000E0FFDF0000C0
:10118000144B1B881B04002B07DA134B1B88984257
:1011900003D1124B1B8899421BD002040E4B120C38
:1011A0001A8009040D4B090C198004200C4B404295
:1011B000053A188012040833052005391880120CEE
:1011C0000C3B09041A80090C043B064A19800C33B5
:1011D0001A80704714C000E07E5301627C530162A4
:1011E00010C000E05082FFFF30B509040004090C74
:1011F000030C02290ED0022902D8012906D107E0EA
:10120000032909D0042901D15A2506E0322504E03A
:10121000632502E0622500E06125191C07482AF0D9
:10122000CFFE041C281C604364212AF083FE011CAD
:10123000201CFFF7A5FF30BC01BC0047804F120007
:1012400030B5051C0C1C00291ED11123184206D0F4
:101250000020FFF731FF274B1C80274B1C802223E7
:101260001D4206D00020FFF74DFF244B1C80244B6D
:101270001C8044231D423AD00020FFF769FF214B18
:101280001C80214B1C8032E0112318420DD001201C
:10129000FFF712FF2304174A1B0C1380EB0601D53E
:1012A0000A2200E00022144B1A8022231D420DD096
:1012B0000120FFF727FF2304104A1B0C1380AB0605
:1012C00001D50A2200E000220D4B1A8044231D4262
:1012D0000DD00120FFF73CFF23040A4A1B0C1380AA
:1012E0006B0601D50A2200E00022074B1A8030BCB1
:1012F00001BC0047E8530162E4530162E653016216
:10130000E2530162E0530162DE5301620EB4F0B5B4
:1013100085B00A9D0190022D10D0022D02DC012D16
:1013200010D108E0032D02D0042D0BD101E0612281
:1013300002E05A2309E06322029207E0622304E0FC
:10134000039A26E0002D37D0322302930BAB002600
:10135000049317E0721C4B1E1A4CB7000092012B2D
:1013600002D8161C39510CE017482AF0E3FD029B05
:101370003851642158432AF0DDFD009A930018513A
:101380000236039B19681A1D03920029D8D0132E28
:10139000E0DD04920B4AB30000219950019A130634
:1013A0000A4A1B0E13700A4A2B061B0E1370094BB8
:1013B000094A19600123138005B0F0BC08BC03B0D2
:1013C0001847000080530162804F1200D45301621D
:1013D000D5530162D8530162DC530162034B188874
:1013E0000004000C4042C00F70470000DC53016253
:1013F000154B1A881B881204120C1B041349524205
:101400001B0CD00F8B4201D108231843104A1388BC
:101410001B04002B01D00223184313881B041B0C50
:101420008B4201D1802318430A4A13881B04002BE6
:1014300001D00423184313881B041B0C8B4202D1D8
:1014400080231B0118437047E8530162FFFF00002F
:10145000E6530162E053016200B50D4B5B79082B46
:1014600011D80C4A9B009B589F4601210CE0032198
:101470000AE0052108E0142106E0192104E02821F2
:1014800002E0642100E00A21FFF7DAFE01BC004718
:101490003C000162E4A70360094B1A79C0231A409B
:1014A000402A0AD0C02A02D0002A04D001E00A2033
:1014B00004E0052002E0012000E003207047000066
:1014C0003C00016270B577490B88774A1B041B0CFE
:1014D000934213D00B881B04002B0FD00B88734A48
:1014E0001B049B181B0C0B800B881B041C0C002C72
:1014F00004D10020FFF7E0FD6D4B1C806D490B8887
:10150000694A1B041B0C934213D00B881B04002B4D
:101510000FD00B88654A1B049B181B0C0B800B8893
:101520001B041C0C002C04D10020FFF7EBFD624BC8
:101530001C8062490B885C4A1B041B0C934213D02D
:101540000B881B04002B0FD00B88584A1B049B18D8
:101550001B0C0B800B881B041C0C002C04D10020DE
:10156000FFF7F6FD564B1C80534C23881B04002BC1
:1015700016D023884D4A1B049B181B0C23802388FC
:101580001B04002B0CD14F4B1A888023DB01134224
:1015900001D0002000E00120FFF7B4FD0A232380E2
:1015A000434C23881B04002B15D023883F4A1B047F
:1015B0009B181B0C238023881B04002B0BD1414B51
:1015C0001B881B04002B01DA002000E00120FFF73C
:1015D00073FD0A2323803A4C23881B04002B16D06A
:1015E0002388324A1B049B181B0C238023881B046E
:1015F000002B0CD1334B1A8880239B01134201D05E
:10160000002000E00120FFF7A3FD0A2323802E4ED7
:1016100033881B04002B42D03388244A1B049B18B8
:101620001B0C338033881B041D0C002D37D1274839
:10163000036827499A00545801330360022C05D1EE
:10164000056003689A00013354580360002C02D0EF
:10165000012C17D10AE01F4B042252421A800522A6
:1016600008331A805022043B1A8018E0194B0422D8
